{
  "_format": "hh-sol-artifact-1",
  "contractName": "Aletheia",
  "sourceName": "contracts/Aletheia.sol",
  "abi": [
    {
      "anonymous": false,
      "inputs": [
        {
          "indexed": false,
          "internalType": "string",
          "name": "key",
          "type": "string"
        },
        {
          "indexed": false,
          "internalType": "string",
          "name": "value",
          "type": "string"
        }
      ],
      "name": "AttestationRootChanged",
      "type": "event"
    },
    {
      "anonymous": false,
      "inputs": [
        {
          "indexed": false,
          "internalType": "uint256",
          "name": "identityCommitment",
          "type": "uint256"
        },
        {
          "indexed": false,
          "internalType": "uint256",
          "name": "root",
          "type": "uint256"
        }
      ],
      "name": "MemberAdded",
      "type": "event"
    },
    {
      "anonymous": false,
      "inputs": [
        {
          "indexed": false,
          "internalType": "uint256",
          "name": "identityCommitment",
          "type": "uint256"
        },
        {
          "indexed": false,
          "internalType": "uint256",
          "name": "root",
          "type": "uint256"
        }
      ],
      "name": "MemberRemoved",
      "type": "event"
    },
    {
      "anonymous": false,
      "inputs": [
        {
          "indexed": true,
          "internalType": "address",
          "name": "previousOwner",
          "type": "address"
        },
        {
          "indexed": true,
          "internalType": "address",
          "name": "newOwner",
          "type": "address"
        }
      ],
      "name": "OwnershipTransferred",
      "type": "event"
    },
    {
      "inputs": [
        {
          "internalType": "uint256",
          "name": "identityCommitment",
          "type": "uint256"
        }
      ],
      "name": "addMember",
      "outputs": [],
      "stateMutability": "nonpayable",
      "type": "function"
    },
    {
      "inputs": [
        {
          "internalType": "string",
          "name": "",
          "type": "string"
        }
      ],
      "name": "attestationRoots",
      "outputs": [
        {
          "internalType": "string",
          "name": "",
          "type": "string"
        }
      ],
      "stateMutability": "view",
      "type": "function"
    },
    {
      "inputs": [
        {
          "internalType": "string",
          "name": "name",
          "type": "string"
        }
      ],
      "name": "getAttestationRoot",
      "outputs": [
        {
          "internalType": "string",
          "name": "",
          "type": "string"
        }
      ],
      "stateMutability": "view",
      "type": "function"
    },
    {
      "inputs": [],
      "name": "getIdentityTreeDepth",
      "outputs": [
        {
          "internalType": "uint8",
          "name": "",
          "type": "uint8"
        }
      ],
      "stateMutability": "view",
      "type": "function"
    },
    {
      "inputs": [],
      "name": "getIdentityTreeNumberOfLeaves",
      "outputs": [
        {
          "internalType": "uint256",
          "name": "",
          "type": "uint256"
        }
      ],
      "stateMutability": "view",
      "type": "function"
    },
    {
      "inputs": [],
      "name": "getIdentityTreeRoot",
      "outputs": [
        {
          "internalType": "uint256",
          "name": "",
          "type": "uint256"
        }
      ],
      "stateMutability": "view",
      "type": "function"
    },
    {
      "inputs": [],
      "name": "owner",
      "outputs": [
        {
          "internalType": "address",
          "name": "",
          "type": "address"
        }
      ],
      "stateMutability": "view",
      "type": "function"
    },
    {
      "inputs": [
        {
          "internalType": "uint256",
          "name": "identityCommitment",
          "type": "uint256"
        },
        {
          "internalType": "uint256[]",
          "name": "proofSiblings",
          "type": "uint256[]"
        },
        {
          "internalType": "uint8[]",
          "name": "proofPathIndices",
          "type": "uint8[]"
        }
      ],
      "name": "removeMember",
      "outputs": [],
      "stateMutability": "nonpayable",
      "type": "function"
    },
    {
      "inputs": [],
      "name": "renounceOwnership",
      "outputs": [],
      "stateMutability": "nonpayable",
      "type": "function"
    },
    {
      "inputs": [
        {
          "internalType": "string",
          "name": "name",
          "type": "string"
        },
        {
          "internalType": "string",
          "name": "value",
          "type": "string"
        }
      ],
      "name": "setAttestationRoot",
      "outputs": [],
      "stateMutability": "nonpayable",
      "type": "function"
    },
    {
      "inputs": [
        {
          "internalType": "address",
          "name": "newOwner",
          "type": "address"
        }
      ],
      "name": "transferOwnership",
      "outputs": [],
      "stateMutability": "nonpayable",
      "type": "function"
    }
  ],
  "bytecode": "0x608060405234801561001057600080fd5b5061002d61002261003260201b60201c565b61003a60201b60201c565b6100fe565b600033905090565b60008060009054906101000a900473ffffffffffffffffffffffffffffffffffffffff169050816000806101000a81548173ffffffffffffffffffffffffffffffffffffffff021916908373ffffffffffffffffffffffffffffffffffffffff1602179055508173ffffffffffffffffffffffffffffffffffffffff168173ffffffffffffffffffffffffffffffffffffffff167f8be0079c531659141344cd1fd0a4f28419497f9722a3daafe3b4186f6b6457e060405160405180910390a35050565b61129c8061010d6000396000f3fe608060405234801561001057600080fd5b50600436106100a95760003560e01c80638da5cb5b116100715780638da5cb5b1461012c578063a6bc59ce1461014a578063cc2f5c1314610166578063dec8a64b14610196578063e2edbfd0146101b4578063f2fde38b146101e4576100a9565b80631089f5ed146100ae5780633827771c146100ca57806352ff8a46146100e6578063688264ac14610104578063715018a614610122575b600080fd5b6100c860048036038101906100c39190610b56565b610200565b005b6100e460048036038101906100df9190610b7f565b610249565b005b6100ee61030a565b6040516100fb9190610f20565b60405180910390f35b61010c610316565b6040516101199190610f20565b60405180910390f35b61012a610323565b005b6101346103ab565b6040516101419190610e11565b60405180910390f35b610164600480360381019061015f9190610aa0565b6103d4565b005b610180600480360381019061017b9190610a5b565b6104c3565b60405161018d9190610e67565b60405180910390f35b61019e610576565b6040516101ab9190610f64565b60405180910390f35b6101ce60048036038101906101c99190610b15565b610590565b6040516101db9190610e67565b60405180910390f35b6101fe60048036038101906101f99190610a32565b610646565b005b600061020a610316565b90507fa7971101f3ab1808fedaf53dcda952637961dcc1153334a243c3426fc83c8594828260405161023d929190610f3b565b60405180910390a15050565b600273__$4c0484323457fe1a856f46a4759b553fe4$__630629596f909187878787876040518763ffffffff1660e01b815260040161028d96959493929190610ec9565b60006040518083038186803b1580156102a557600080fd5b505af41580156102b9573d6000803e3d6000fd5b5050505060006102c7610316565b90507ff75290a2e96cc6159e4aa725868d3ee344d7e302fddea73704110e6840e5a4ef86826040516102fa929190610f3b565b60405180910390a1505050505050565b60006002800154905090565b6000600260010154905090565b61032b61073e565b73ffffffffffffffffffffffffffffffffffffffff166103496103ab565b73ffffffffffffffffffffffffffffffffffffffff161461039f576040517f08c379a000000000000000000000000000000000000000000000000000000000815260040161039690610ea9565b60405180910390fd5b6103a96000610746565b565b60008060009054906101000a900473ffffffffffffffffffffffffffffffffffffffff16905090565b6103dc61073e565b73ffffffffffffffffffffffffffffffffffffffff166103fa6103ab565b73ffffffffffffffffffffffffffffffffffffffff1614610450576040517f08c379a000000000000000000000000000000000000000000000000000000000815260040161044790610ea9565b60405180910390fd5b818160018686604051610464929190610df8565b9081526020016040518091039020919061047f92919061080a565b507fa3911603b9b8e901645d327b3876c8733c0ba68ad3fac5272ddca28ace97805b848484846040516104b59493929190610e2c565b60405180910390a150505050565b6060600183836040516104d7929190610df8565b908152602001604051809103902080546104f0906110d7565b80601f016020809104026020016040519081016040528092919081815260200182805461051c906110d7565b80156105695780601f1061053e57610100808354040283529160200191610569565b820191906000526020600020905b81548152906001019060200180831161054c57829003601f168201915b5050505050905092915050565b6000600260000160009054906101000a900460ff16905090565b60018180516020810182018051848252602083016020850120818352809550505050505060009150905080546105c5906110d7565b80601f01602080910402602001604051908101604052809291908181526020018280546105f1906110d7565b801561063e5780601f106106135761010080835404028352916020019161063e565b820191906000526020600020905b81548152906001019060200180831161062157829003601f168201915b505050505081565b61064e61073e565b73ffffffffffffffffffffffffffffffffffffffff1661066c6103ab565b73ffffffffffffffffffffffffffffffffffffffff16146106c2576040517f08c379a00000000000000000000000000000000000000000000000000000000081526004016106b990610ea9565b60405180910390fd5b600073ffffffffffffffffffffffffffffffffffffffff168173ffffffffffffffffffffffffffffffffffffffff161415610732576040517f08c379a000000000000000000000000000000000000000000000000000000000815260040161072990610e89565b60405180910390fd5b61073b81610746565b50565b600033905090565b60008060009054906101000a900473ffffffffffffffffffffffffffffffffffffffff169050816000806101000a81548173ffffffffffffffffffffffffffffffffffffffff021916908373ffffffffffffffffffffffffffffffffffffffff1602179055508173ffffffffffffffffffffffffffffffffffffffff168173ffffffffffffffffffffffffffffffffffffffff167f8be0079c531659141344cd1fd0a4f28419497f9722a3daafe3b4186f6b6457e060405160405180910390a35050565b828054610816906110d7565b90600052602060002090601f016020900481019282610838576000855561087f565b82601f1061085157803560ff191683800117855561087f565b8280016001018555821561087f579182015b8281111561087e578235825591602001919060010190610863565b5b50905061088c9190610890565b5090565b5b808211156108a9576000816000905550600101610891565b5090565b60006108c06108bb84610fa4565b610f7f565b9050828152602081018484840111156108d857600080fd5b6108e3848285611095565b509392505050565b6000813590506108fa81611221565b92915050565b60008083601f84011261091257600080fd5b8235905067ffffffffffffffff81111561092b57600080fd5b60208301915083602082028301111561094357600080fd5b9250929050565b60008083601f84011261095c57600080fd5b8235905067ffffffffffffffff81111561097557600080fd5b60208301915083602082028301111561098d57600080fd5b9250929050565b60008083601f8401126109a657600080fd5b8235905067ffffffffffffffff8111156109bf57600080fd5b6020830191508360018202830111156109d757600080fd5b9250929050565b600082601f8301126109ef57600080fd5b81356109ff8482602086016108ad565b91505092915050565b600081359050610a1781611238565b92915050565b600081359050610a2c8161124f565b92915050565b600060208284031215610a4457600080fd5b6000610a52848285016108eb565b91505092915050565b60008060208385031215610a6e57600080fd5b600083013567ffffffffffffffff811115610a8857600080fd5b610a9485828601610994565b92509250509250929050565b60008060008060408587031215610ab657600080fd5b600085013567ffffffffffffffff811115610ad057600080fd5b610adc87828801610994565b9450945050602085013567ffffffffffffffff811115610afb57600080fd5b610b0787828801610994565b925092505092959194509250565b600060208284031215610b2757600080fd5b600082013567ffffffffffffffff811115610b4157600080fd5b610b4d848285016109de565b91505092915050565b600060208284031215610b6857600080fd5b6000610b7684828501610a08565b91505092915050565b600080600080600060608688031215610b9757600080fd5b6000610ba588828901610a08565b955050602086013567ffffffffffffffff811115610bc257600080fd5b610bce88828901610900565b9450945050604086013567ffffffffffffffff811115610bed57600080fd5b610bf98882890161094a565b92509250509295509295909350565b6000610c148383610de9565b60208301905092915050565b610c298161104c565b82525050565b6000610c3b8385610ff7565b93507f07ffffffffffffffffffffffffffffffffffffffffffffffffffffffffffffff831115610c6a57600080fd5b602083029250610c7b838584611095565b82840190509392505050565b6000610c938385611008565b9350610c9e82610fd5565b8060005b85811015610cd757610cb48284611035565b610cbe8882610c08565b9750610cc983610fea565b925050600181019050610ca2565b5085925050509392505050565b6000610cf08385611019565b9350610cfd838584611095565b610d0683611198565b840190509392505050565b6000610d1d838561102a565b9350610d2a838584611095565b82840190509392505050565b6000610d4182610fdf565b610d4b8185611019565b9350610d5b8185602086016110a4565b610d6481611198565b840191505092915050565b6000610d7c602683611019565b9150610d87826111a9565b604082019050919050565b6000610d9f602083611019565b9150610daa826111f8565b602082019050919050565b8082525050565b610dc58161107e565b82525050565b610dd48161107e565b82525050565b610de381611088565b82525050565b610df281611088565b82525050565b6000610e05828486610d11565b91508190509392505050565b6000602082019050610e266000830184610c20565b92915050565b60006040820190508181036000830152610e47818688610ce4565b90508181036020830152610e5c818486610ce4565b905095945050505050565b60006020820190508181036000830152610e818184610d36565b905092915050565b60006020820190508181036000830152610ea281610d6f565b9050919050565b60006020820190508181036000830152610ec281610d92565b9050919050565b6000608082019050610ede6000830189610db5565b610eeb6020830188610dcb565b8181036040830152610efe818688610c2f565b90508181036060830152610f13818486610c87565b9050979650505050505050565b6000602082019050610f356000830184610dbc565b92915050565b6000604082019050610f506000830185610dbc565b610f5d6020830184610dbc565b9392505050565b6000602082019050610f796000830184610dda565b92915050565b6000610f89610f9a565b9050610f958282611109565b919050565b6000604051905090565b600067ffffffffffffffff821115610fbf57610fbe611169565b5b610fc882611198565b9050602081019050919050565b6000819050919050565b600081519050919050565b6000602082019050919050565b600082825260208201905092915050565b600082825260208201905092915050565b600082825260208201905092915050565b600081905092915050565b60006110446020840184610a1d565b905092915050565b60006110578261105e565b9050919050565b600073ffffffffffffffffffffffffffffffffffffffff82169050919050565b6000819050919050565b600060ff82169050919050565b82818337600083830152505050565b60005b838110156110c25780820151818401526020810190506110a7565b838111156110d1576000848401525b50505050565b600060028204905060018216806110ef57607f821691505b602082108114156111035761110261113a565b5b50919050565b61111282611198565b810181811067ffffffffffffffff8211171561113157611130611169565b5b80604052505050565b7f4e487b7100000000000000000000000000000000000000000000000000000000600052602260045260246000fd5b7f4e487b7100000000000000000000000000000000000000000000000000000000600052604160045260246000fd5b6000601f19601f8301169050919050565b7f4f776e61626c653a206e6577206f776e657220697320746865207a65726f206160008201527f6464726573730000000000000000000000000000000000000000000000000000602082015250565b7f4f776e61626c653a2063616c6c6572206973206e6f7420746865206f776e6572600082015250565b61122a8161104c565b811461123557600080fd5b50565b6112418161107e565b811461124c57600080fd5b50565b61125881611088565b811461126357600080fd5b5056fea26469706673582212205e36f72346b60cd4f90a5903f2ed518cf2abdd7f1724e1eb061bc98431b97e7664736f6c63430008040033",
  "linkReferences": {
    "@zk-kit/incremental-merkle-tree.sol/contracts/IncrementalBinaryTree.sol": {
      "IncrementalBinaryTree": [
        {
          "length": 20,
          "start": 858
        }
      ]
    }
  },
  "deployedLinkReferences": {
    "@zk-kit/incremental-merkle-tree.sol/contracts/IncrementalBinaryTree.sol": {
      "IncrementalBinaryTree": [
        {
          "length": 20,
          "start": 589
        }
      ]
    }
  }
}