{
  "_format": "hh-sol-artifact-1",
  "contractName": "Aletheia",
  "sourceName": "contracts/Aletheia.sol",
  "abi": [
    {
      "anonymous": false,
      "inputs": [
        {
          "indexed": false,
          "internalType": "string",
          "name": "key",
          "type": "string"
        },
        {
          "indexed": false,
          "internalType": "string",
          "name": "value",
          "type": "string"
        }
      ],
      "name": "AttestationRootChanged",
      "type": "event"
    },
    {
      "anonymous": false,
      "inputs": [
        {
          "indexed": false,
          "internalType": "uint256",
          "name": "identityCommitment",
          "type": "uint256"
        }
      ],
      "name": "MemberAdded",
      "type": "event"
    },
    {
      "anonymous": false,
      "inputs": [
        {
          "indexed": true,
          "internalType": "address",
          "name": "previousOwner",
          "type": "address"
        },
        {
          "indexed": true,
          "internalType": "address",
          "name": "newOwner",
          "type": "address"
        }
      ],
      "name": "OwnershipTransferred",
      "type": "event"
    },
    {
      "inputs": [
        {
          "internalType": "uint256",
          "name": "identityCommitment",
          "type": "uint256"
        }
      ],
      "name": "addMember",
      "outputs": [],
      "stateMutability": "nonpayable",
      "type": "function"
    },
    {
      "inputs": [
        {
          "internalType": "string",
          "name": "",
          "type": "string"
        }
      ],
      "name": "attestationRoots",
      "outputs": [
        {
          "internalType": "string",
          "name": "",
          "type": "string"
        }
      ],
      "stateMutability": "view",
      "type": "function"
    },
    {
      "inputs": [
        {
          "internalType": "string",
          "name": "name",
          "type": "string"
        }
      ],
      "name": "getAttestationRoot",
      "outputs": [
        {
          "internalType": "string",
          "name": "",
          "type": "string"
        }
      ],
      "stateMutability": "view",
      "type": "function"
    },
    {
      "inputs": [],
      "name": "owner",
      "outputs": [
        {
          "internalType": "address",
          "name": "",
          "type": "address"
        }
      ],
      "stateMutability": "view",
      "type": "function"
    },
    {
      "inputs": [],
      "name": "renounceOwnership",
      "outputs": [],
      "stateMutability": "nonpayable",
      "type": "function"
    },
    {
      "inputs": [
        {
          "internalType": "string",
          "name": "name",
          "type": "string"
        },
        {
          "internalType": "string",
          "name": "value",
          "type": "string"
        }
      ],
      "name": "setAttestationRoot",
      "outputs": [],
      "stateMutability": "nonpayable",
      "type": "function"
    },
    {
      "inputs": [
        {
          "internalType": "address",
          "name": "newOwner",
          "type": "address"
        }
      ],
      "name": "transferOwnership",
      "outputs": [],
      "stateMutability": "nonpayable",
      "type": "function"
    }
  ],
  "bytecode": "0x608060405234801561001057600080fd5b5061002d61002261003260201b60201c565b61003a60201b60201c565b6100fe565b600033905090565b60008060009054906101000a900473ffffffffffffffffffffffffffffffffffffffff169050816000806101000a81548173ffffffffffffffffffffffffffffffffffffffff021916908373ffffffffffffffffffffffffffffffffffffffff1602179055508173ffffffffffffffffffffffffffffffffffffffff168173ffffffffffffffffffffffffffffffffffffffff167f8be0079c531659141344cd1fd0a4f28419497f9722a3daafe3b4186f6b6457e060405160405180910390a35050565b610db58061010d6000396000f3fe608060405234801561001057600080fd5b506004361061007d5760003560e01c8063a6bc59ce1161005b578063a6bc59ce146100c6578063cc2f5c13146100e2578063e2edbfd014610112578063f2fde38b146101425761007d565b80631089f5ed14610082578063715018a61461009e5780638da5cb5b146100a8575b600080fd5b61009c60048036038101906100979190610908565b61015e565b005b6100a6610198565b005b6100b0610220565b6040516100bd9190610a39565b60405180910390f35b6100e060048036038101906100db9190610852565b610249565b005b6100fc60048036038101906100f7919061080d565b610338565b6040516101099190610a8f565b60405180910390f35b61012c600480360381019061012791906108c7565b6103eb565b6040516101399190610a8f565b60405180910390f35b61015c600480360381019061015791906107e4565b6104a1565b005b7f663edc42a721f7c73209441ed31f141cef6912283c680024547d950559c555918160405161018d9190610af1565b60405180910390a150565b6101a0610599565b73ffffffffffffffffffffffffffffffffffffffff166101be610220565b73ffffffffffffffffffffffffffffffffffffffff1614610214576040517f08c379a000000000000000000000000000000000000000000000000000000000815260040161020b90610ad1565b60405180910390fd5b61021e60006105a1565b565b60008060009054906101000a900473ffffffffffffffffffffffffffffffffffffffff16905090565b610251610599565b73ffffffffffffffffffffffffffffffffffffffff1661026f610220565b73ffffffffffffffffffffffffffffffffffffffff16146102c5576040517f08c379a00000000000000000000000000000000000000000000000000000000081526004016102bc90610ad1565b60405180910390fd5b8181600186866040516102d9929190610a20565b908152602001604051809103902091906102f4929190610665565b507fa3911603b9b8e901645d327b3876c8733c0ba68ad3fac5272ddca28ace97805b8484848460405161032a9493929190610a54565b60405180910390a150505050565b60606001838360405161034c929190610a20565b9081526020016040518091039020805461036590610c07565b80601f016020809104026020016040519081016040528092919081815260200182805461039190610c07565b80156103de5780601f106103b3576101008083540402835291602001916103de565b820191906000526020600020905b8154815290600101906020018083116103c157829003601f168201915b5050505050905092915050565b600181805160208101820180518482526020830160208501208183528095505050505050600091509050805461042090610c07565b80601f016020809104026020016040519081016040528092919081815260200182805461044c90610c07565b80156104995780601f1061046e57610100808354040283529160200191610499565b820191906000526020600020905b81548152906001019060200180831161047c57829003601f168201915b505050505081565b6104a9610599565b73ffffffffffffffffffffffffffffffffffffffff166104c7610220565b73ffffffffffffffffffffffffffffffffffffffff161461051d576040517f08c379a000000000000000000000000000000000000000000000000000000000815260040161051490610ad1565b60405180910390fd5b600073ffffffffffffffffffffffffffffffffffffffff168173ffffffffffffffffffffffffffffffffffffffff16141561058d576040517f08c379a000000000000000000000000000000000000000000000000000000000815260040161058490610ab1565b60405180910390fd5b610596816105a1565b50565b600033905090565b60008060009054906101000a900473ffffffffffffffffffffffffffffffffffffffff169050816000806101000a81548173ffffffffffffffffffffffffffffffffffffffff021916908373ffffffffffffffffffffffffffffffffffffffff1602179055508173ffffffffffffffffffffffffffffffffffffffff168173ffffffffffffffffffffffffffffffffffffffff167f8be0079c531659141344cd1fd0a4f28419497f9722a3daafe3b4186f6b6457e060405160405180910390a35050565b82805461067190610c07565b90600052602060002090601f01602090048101928261069357600085556106da565b82601f106106ac57803560ff19168380011785556106da565b828001600101855582156106da579182015b828111156106d95782358255916020019190600101906106be565b5b5090506106e791906106eb565b5090565b5b808211156107045760008160009055506001016106ec565b5090565b600061071b61071684610b31565b610b0c565b90508281526020810184848401111561073357600080fd5b61073e848285610bc5565b509392505050565b60008135905061075581610d51565b92915050565b60008083601f84011261076d57600080fd5b8235905067ffffffffffffffff81111561078657600080fd5b60208301915083600182028301111561079e57600080fd5b9250929050565b600082601f8301126107b657600080fd5b81356107c6848260208601610708565b91505092915050565b6000813590506107de81610d68565b92915050565b6000602082840312156107f657600080fd5b600061080484828501610746565b91505092915050565b6000806020838503121561082057600080fd5b600083013567ffffffffffffffff81111561083a57600080fd5b6108468582860161075b565b92509250509250929050565b6000806000806040858703121561086857600080fd5b600085013567ffffffffffffffff81111561088257600080fd5b61088e8782880161075b565b9450945050602085013567ffffffffffffffff8111156108ad57600080fd5b6108b98782880161075b565b925092505092959194509250565b6000602082840312156108d957600080fd5b600082013567ffffffffffffffff8111156108f357600080fd5b6108ff848285016107a5565b91505092915050565b60006020828403121561091a57600080fd5b6000610928848285016107cf565b91505092915050565b61093a81610b89565b82525050565b600061094c8385610b6d565b9350610959838584610bc5565b61096283610cc8565b840190509392505050565b60006109798385610b7e565b9350610986838584610bc5565b82840190509392505050565b600061099d82610b62565b6109a78185610b6d565b93506109b7818560208601610bd4565b6109c081610cc8565b840191505092915050565b60006109d8602683610b6d565b91506109e382610cd9565b604082019050919050565b60006109fb602083610b6d565b9150610a0682610d28565b602082019050919050565b610a1a81610bbb565b82525050565b6000610a2d82848661096d565b91508190509392505050565b6000602082019050610a4e6000830184610931565b92915050565b60006040820190508181036000830152610a6f818688610940565b90508181036020830152610a84818486610940565b905095945050505050565b60006020820190508181036000830152610aa98184610992565b905092915050565b60006020820190508181036000830152610aca816109cb565b9050919050565b60006020820190508181036000830152610aea816109ee565b9050919050565b6000602082019050610b066000830184610a11565b92915050565b6000610b16610b27565b9050610b228282610c39565b919050565b6000604051905090565b600067ffffffffffffffff821115610b4c57610b4b610c99565b5b610b5582610cc8565b9050602081019050919050565b600081519050919050565b600082825260208201905092915050565b600081905092915050565b6000610b9482610b9b565b9050919050565b600073ffffffffffffffffffffffffffffffffffffffff82169050919050565b6000819050919050565b82818337600083830152505050565b60005b83811015610bf2578082015181840152602081019050610bd7565b83811115610c01576000848401525b50505050565b60006002820490506001821680610c1f57607f821691505b60208210811415610c3357610c32610c6a565b5b50919050565b610c4282610cc8565b810181811067ffffffffffffffff82111715610c6157610c60610c99565b5b80604052505050565b7f4e487b7100000000000000000000000000000000000000000000000000000000600052602260045260246000fd5b7f4e487b7100000000000000000000000000000000000000000000000000000000600052604160045260246000fd5b6000601f19601f8301169050919050565b7f4f776e61626c653a206e6577206f776e657220697320746865207a65726f206160008201527f6464726573730000000000000000000000000000000000000000000000000000602082015250565b7f4f776e61626c653a2063616c6c6572206973206e6f7420746865206f776e6572600082015250565b610d5a81610b89565b8114610d6557600080fd5b50565b610d7181610bbb565b8114610d7c57600080fd5b5056fea2646970667358221220122631d474a78f392bee14299e0eb9a93d9de65777a637b2e6ab79b3f23b254464736f6c63430008040033",
  "linkReferences": {},
  "deployedLinkReferences": {}
}